******************************************************************************
                  TI ARM Linker PC v18.1.2                     
******************************************************************************
>> Linked Thu Sep  5 13:00:37 2019

OUTPUT FILE NAME:   <opdr.1.1.7.out>
ENTRY POINT SYMBOL: "resetISR"  address: 2000ea99


MEMORY CONFIGURATION

         name            origin    length      used     unused   attr    fill
----------------------  --------  ---------  --------  --------  ----  --------
  SRAM2                 20000000   00004000  0000130c  00002cf4  RW X
  SRAM                  20004000   0003c000  0000b11f  00030ee1  RW X


SEGMENT ALLOCATION MAP

run origin  load origin   length   init length attrs members
----------  ----------- ---------- ----------- ----- -------
20003000    20003000    00001000   00000000    rw-
  20003000    20003000    00001000   00000000    rw- .stack
20004000    20004000    00000040   00000040    r--
  20004000    20004000    00000040   00000040    r-- .resetVecs
20004040    20004040    00008000   00000000    rw-
  20004040    20004040    00008000   00000000    rw- .sysmem
2000c040    2000c040    00002b4c   00002b4c    r-x
  2000c040    2000c040    00002b4c   00002b4c    r-x .text
2000eb8c    2000eb8c    000001ec   00000000    rw-
  2000eb8c    2000eb8c    000001ec   00000000    rw- .data
2000ed78    2000ed78    000001d8   00000000    rw-
  2000ed78    2000ed78    000001d8   00000000    rw- .bss
2000ef50    2000ef50    000001d0   000001d0    r--
  2000ef50    2000ef50    0000012f   0000012f    r-- .const
  2000f080    2000f080    000000a0   000000a0    r-- .cinit


SECTION ALLOCATION MAP

 output                                  attributes/
section   page    origin      length       input sections
--------  ----  ----------  ----------   ----------------
.text      0    2000c040    00002b4c     
                  2000c040    00000a4a     rtsv7M4_T_le_eabi.lib : _printfi.c.obj (.text:__TI_printfi)
                  2000ca8a    00000002                           : _lock.c.obj (.text:_nop)
                  2000ca8c    00000268                           : _printfi.c.obj (.text:_pconv_a)
                  2000ccf4    000001cc                           : _printfi.c.obj (.text:_pconv_g)
                  2000cec0    000001b6                           : fd_add_t2.asm.obj (.text)
                  2000d076    00000002     nortos_cc32xx.aem4 : startup_cc32xx_ccs.oem4 (.text:busFaultHandler)
                  2000d078    0000013c     rtsv7M4_T_le_eabi.lib : _printfi.c.obj (.text:_pconv_e)
                  2000d1b4    00000136                           : fd_div_t2.asm.obj (.text)
                  2000d2ea    00000002     nortos_cc32xx.aem4 : startup_cc32xx_ccs.oem4 (.text:defaultHandler)
                  2000d2ec    00000124     main.obj (.text:main)
                  2000d410    00000120     rtsv7M4_T_le_eabi.lib : _printfi.c.obj (.text:fcvt)
                  2000d530    00000114                           : fputs.c.obj (.text:fputs)
                  2000d644    000000fc                           : fd_mul_t2.asm.obj (.text)
                  2000d740    000000dc                           : setvbuf.c.obj (.text:setvbuf)
                  2000d81c    000000d8                           : memory.c.obj (.text:free)
                  2000d8f4    000000d0                           : s_scalbn.c.obj (.text:scalbn)
                  2000d9c4    000000b1                           : _printfi.c.obj (.text:_ltostr)
                  2000da75    00000001     --HOLE-- [fill = 0]
                  2000da76    00000002     nortos_cc32xx.aem4 : startup_cc32xx_ccs.oem4 (.text:faultISR)
                  2000da78    000000a8     driverlib.a : interrupt.obj (.text:IntEnable)
                  2000db20    0000009c     rtsv7M4_T_le_eabi.lib : memcpy_t2.asm.obj (.text)
                  2000dbbc    00000096                           : ull_div_t2.asm.obj (.text)
                  2000dc52    00000002     nortos_cc32xx.aem4 : startup_cc32xx_ccs.oem4 (.text:nmiISR)
                  2000dc54    0000008c     rtsv7M4_T_le_eabi.lib : fputc.c.obj (.text:fputc)
                  2000dce0    00000086                           : fd_cmp_t2.asm.obj (.text:__aeabi_cdcmple)
                  2000dd66    00000086                           : fd_cmp_t2.asm.obj (.text:__aeabi_cdrcmple)
                  2000ddec    0000007a                           : memset_t2.asm.obj (.text)
                  2000de66    00000002                           : div0.asm.obj (.text)
                  2000de68    00000078                           : memory.c.obj (.text:malloc)
                  2000dee0    00000074                           : fclose.c.obj (.text:__TI_closefile)
                  2000df54    0000006e                           : _printfi.c.obj (.text:_mcpy)
                  2000dfc2    00000002     --HOLE-- [fill = 0]
                  2000dfc4    00000068                           : hostlseek.c.obj (.text:HOSTlseek)
                  2000e02c    00000068                           : hostrename.c.obj (.text:HOSTrename)
                  2000e094    00000068                           : copy_decompress_lzss.c.obj (.text:decompress:lzss:__TI_decompress_lzss)
                  2000e0fc    00000068                           : printf.c.obj (.text:printf)
                  2000e164    00000064                           : fseek.c.obj (.text:fseek)
                  2000e1c8    00000062                           : _io_perm.c.obj (.text:__TI_wrt_ok)
                  2000e22a    00000002     --HOLE-- [fill = 0]
                  2000e22c    00000060                           : hostopen.c.obj (.text:HOSTopen)
                  2000e28c    0000005c                           : close.c.obj (.text:close)
                  2000e2e8    0000005c                           : s_frexp.c.obj (.text:frexp)
                  2000e344    00000058                           : hostread.c.obj (.text:HOSTread)
                  2000e39c    00000058                           : hostwrite.c.obj (.text:HOSTwrite)
                  2000e3f4    00000056                           : _printfi.c.obj (.text:_pconv_f)
                  2000e44a    00000054                           : ltoa.c.obj (.text:ltoa)
                  2000e49e    00000052                           : _printfi.c.obj (.text:_ecpy)
                  2000e4f0    0000004c                           : fflush.c.obj (.text:__TI_doflush)
                  2000e53c    0000004c                           : atoi.c.obj (.text:atoi)
                  2000e588    00000048                           : exit.c.obj (.text:exit)
                  2000e5d0    00000048                           : fd_toi_t2.asm.obj (.text)
                  2000e618    00000044     nortos_cc32xx.aem4 : ClockPSysTick_nortos.oem4 (.text:ClockP_sysTickHandler)
                  2000e65c    00000044     rtsv7M4_T_le_eabi.lib : hostclose.c.obj (.text:HOSTclose)
                  2000e6a0    00000044                           : hostunlink.c.obj (.text:HOSTunlink)
                  2000e6e4    00000044                           : autoinit.c.obj (.text:__TI_auto_init_nobinit_nopinit:__TI_auto_init_nobinit_nopinit)
                  2000e728    00000044                           : getdevice.c.obj (.text:getdevice)
                  2000e76c    0000003e                           : _printfi.c.obj (.text:_fcpy)
                  2000e7aa    00000002     --HOLE-- [fill = 0]
                  2000e7ac    0000003c                           : memory.c.obj (.text:minsert)
                  2000e7e8    00000038                           : trgmsg.c.obj (.text:__TI_writemsg)
                  2000e820    00000038     nortos_cc32xx.aem4 : startup_cc32xx_ccs.oem4 (.text:initVectors)
                  2000e858    00000038     rtsv7M4_T_le_eabi.lib : memory.c.obj (.text:minit)
                  2000e890    00000036                           : strncpy.c.obj (.text:strncpy)
                  2000e8c6    00000002     --HOLE-- [fill = 0]
                  2000e8c8    00000034                           : fopen.c.obj (.text:__TI_cleanup)
                  2000e8fc    00000034                           : trgmsg.c.obj (.text:__TI_readmsg)
                  2000e930    00000030                           : getdevice.c.obj (.text:finddevice)
                  2000e960    0000002e                           : i_tofd_t2.asm.obj (.text)
                  2000e98e    00000002     --HOLE-- [fill = 0]
                  2000e990    0000002c                           : unlink.c.obj (.text:unlink)
                  2000e9bc    00000028                           : boot_cortex_m.c.obj (.text:_c_int00_noargs:_c_int00_noargs)
                  2000e9e4    00000028                           : lseek.c.obj (.text:lseek)
                  2000ea0c    00000028                           : memory.c.obj (.text:mremove)
                  2000ea34    00000028                           : write.c.obj (.text:write)
                  2000ea5c    00000020                           : memchr.c.obj (.text:memchr)
                  2000ea7c    0000001c                           : memccpy.c.obj (.text:memccpy)
                  2000ea98    0000001a     nortos_cc32xx.aem4 : startup_cc32xx_ccs.oem4 (.text:resetISR)
                  2000eab2    00000018     rtsv7M4_T_le_eabi.lib : strcmp.c.obj (.text:strcmp)
                  2000eaca    00000016                           : strchr.c.obj (.text:strchr)
                  2000eae0    00000014     driverlib.a : cpu.obj (.text:CPUcpsid)
                  2000eaf4    00000014                 : interrupt.obj (.text:IntVTableBaseSet)
                  2000eb08    00000014     rtsv7M4_T_le_eabi.lib : strcpy.c.obj (.text:strcpy)
                  2000eb1c    00000014                           : strlen.c.obj (.text:strlen)
                  2000eb30    00000012                           : copy_zero_init.c.obj (.text:decompress:ZI:__TI_zero_init_nomemset:__TI_zero_init_nomemset)
                  2000eb42    00000012                           : wcslen.c.obj (.text:wcslen)
                  2000eb54    0000000e                           : copy_decompress_none.c.obj (.text:decompress:none:__TI_decompress_none)
                  2000eb62    0000000a     driverlib.a : interrupt.obj (.text:IntMasterDisable)
                  2000eb6c    00000008     rtsv7M4_T_le_eabi.lib : errno.c.obj (.text:__aeabi_errno_addr)
                  2000eb74    00000008                           : s_copysign.c.obj (.text:copysign)
                  2000eb7c    00000004                           : printf.c.obj (.text:_outc)
                  2000eb80    00000004                           : printf.c.obj (.text:_outs)
                  2000eb84    00000004                           : pre_init.c.obj (.text:_system_pre_init)
                  2000eb88    00000004                           : exit.c.obj (.text:abort:abort)

.ramVecs   0    20000000    0000030c     NOLOAD SECTION
                  20000000    0000030c     nortos_cc32xx.aem4 : startup_cc32xx_ccs.oem4 (.ramVecs)

.stack     0    20003000    00001000     UNINITIALIZED
                  20003000    00000004     rtsv7M4_T_le_eabi.lib : boot_cortex_m.c.obj (.stack)
                  20003004    00000ffc     --HOLE--

.resetVecs 
*          0    20004000    00000040     
                  20004000    00000040     nortos_cc32xx.aem4 : startup_cc32xx_ccs.oem4 (.resetVecs:retain)

.sysmem    0    20004040    00008000     UNINITIALIZED
                  20004040    00000008     rtsv7M4_T_le_eabi.lib : memory.c.obj (.sysmem)
                  20004048    00007ff8     --HOLE--

.const     0    2000ef50    0000012f     
                  2000ef50    00000101     rtsv7M4_T_le_eabi.lib : ctype.c.obj (.const:.string:_ctypes_)
                  2000f051    00000003     --HOLE-- [fill = 0]
                  2000f054    00000018     driverlib.a : interrupt.obj (.const:g_pulEnRegs)
                  2000f06c    00000013     main.obj (.const:.string:$P$T0$1)

.cinit     0    2000f080    000000a0     
                  2000f080    00000076     (.cinit..data.load) [load image, compression = lzss]
                  2000f0f6    00000002     --HOLE-- [fill = 0]
                  2000f0f8    0000000c     (__TI_handler_table)
                  2000f104    00000004     --HOLE-- [fill = 0]
                  2000f108    00000008     (.cinit..bss.load) [load image, compression = zero_init]
                  2000f110    00000010     (__TI_cinit_table)

.init_array 
*          0    20004000    00000000     UNINITIALIZED

.data      0    2000eb8c    000001ec     UNINITIALIZED
                  2000eb8c    000000f0     rtsv7M4_T_le_eabi.lib : defs.c.obj (.data:_ftable)
                  2000ec7c    00000078                           : write.c.obj (.data:_device)
                  2000ecf4    00000050                           : write.c.obj (.data:_stream)
                  2000ed44    00000010                           : defs.c.obj (.data)
                  2000ed54    0000000c                           : exit.c.obj (.data:$O1$$)
                  2000ed60    0000000c                           : memory.c.obj (.data:$O1$$)
                  2000ed6c    00000008                           : _lock.c.obj (.data:$O1$$)
                  2000ed74    00000004                           : errno.c.obj (.data)

.bss       0    2000ed78    000001d8     UNINITIALIZED
                  2000ed78    00000120     rtsv7M4_T_le_eabi.lib : trgmsg.c.obj (.bss:_CIOBUF_)
                  2000ee98    000000a0     (.common:__TI_tmpnams)
                  2000ef38    00000010     (.common:ClockP_ctrl)
                  2000ef48    00000008     (.common:parmbuf)

MODULE SUMMARY

       Module                       code    ro data   rw data
       ------                       ----    -------   -------
    .\
       main.obj                     292     19        0      
    +--+----------------------------+-------+---------+---------+
       Total:                       292     19        0      
                                                             
    C:/ti/simplelink_cc32xx_sdk_2_40_01_01/kernel/nortos/lib/nortos_cc32xx.aem4
       startup_cc32xx_ccs.oem4      90      64        780    
       ClockPSysTick_nortos.oem4    68      0         16     
    +--+----------------------------+-------+---------+---------+
       Total:                       158     64        796    
                                                             
    C:/ti/simplelink_cc32xx_sdk_2_40_01_01/source/ti/devices/cc32xx/driverlib/ccs/Release/driverlib.a
       interrupt.obj                198     24        0      
       cpu.obj                      20      0         0      
    +--+----------------------------+-------+---------+---------+
       Total:                       218     24        0      
                                                             
    C:\ti\ccsv8\tools\compiler\ti-cgt-arm_18.1.2.LTS\lib\rtsv7M4_T_le_eabi.lib
       _printfi.c.obj               4831    0         0      
       memory.c.obj                 492     0         12     
       fd_add_t2.asm.obj            438     0         0      
       defs.c.obj                   0       0         416    
       trgmsg.c.obj                 108     0         288    
       fd_div_t2.asm.obj            310     0         0      
       fputs.c.obj                  276     0         0      
       fd_cmp_t2.asm.obj            268     0         0      
       ctype.c.obj                  0       257       0      
       fd_mul_t2.asm.obj            252     0         0      
       write.c.obj                  40      0         200    
       setvbuf.c.obj                220     0         0      
       s_scalbn.c.obj               208     0         0      
       memcpy_t2.asm.obj            156     0         0      
       ull_div_t2.asm.obj           150     0         0      
       fputc.c.obj                  140     0         0      
       memset_t2.asm.obj            122     0         0      
       fclose.c.obj                 116     0         0      
       getdevice.c.obj              116     0         0      
       printf.c.obj                 112     0         0      
       copy_decompress_lzss.c.obj   104     0         0      
       hostlseek.c.obj              104     0         0      
       hostopen.c.obj               96      0         8      
       hostrename.c.obj             104     0         0      
       fseek.c.obj                  100     0         0      
       _io_perm.c.obj               98      0         0      
       close.c.obj                  92      0         0      
       s_frexp.c.obj                92      0         0      
       exit.c.obj                   76      0         12     
       hostread.c.obj               88      0         0      
       hostwrite.c.obj              88      0         0      
       ltoa.c.obj                   84      0         0      
       atoi.c.obj                   76      0         0      
       fflush.c.obj                 76      0         0      
       fd_toi_t2.asm.obj            72      0         0      
       autoinit.c.obj               68      0         0      
       hostclose.c.obj              68      0         0      
       hostunlink.c.obj             68      0         0      
       strncpy.c.obj                54      0         0      
       fopen.c.obj                  52      0         0      
       i_tofd_t2.asm.obj            46      0         0      
       unlink.c.obj                 44      0         0      
       boot_cortex_m.c.obj          40      0         0      
       lseek.c.obj                  40      0         0      
       memchr.c.obj                 32      0         0      
       memccpy.c.obj                28      0         0      
       strcmp.c.obj                 24      0         0      
       strchr.c.obj                 22      0         0      
       strcpy.c.obj                 20      0         0      
       strlen.c.obj                 20      0         0      
       copy_zero_init.c.obj         18      0         0      
       wcslen.c.obj                 18      0         0      
       copy_decompress_none.c.obj   14      0         0      
       errno.c.obj                  8       0         4      
       _lock.c.obj                  2       0         8      
       s_copysign.c.obj             8       0         0      
       pre_init.c.obj               4       0         0      
       div0.asm.obj                 2       0         0      
    +--+----------------------------+-------+---------+---------+
       Total:                       10405   257       948    
                                                             
       Heap:                        0       0         32768  
       Stack:                       0       0         4096   
       Linker Generated:            0       154       0      
    +--+----------------------------+-------+---------+---------+
       Grand Total:                 11073   518       38608  


LINKER GENERATED COPY TABLES

__TI_cinit_table @ 2000f110 records: 2, size/record: 8, table size: 16
	.data: load addr=2000f080, load size=00000076 bytes, run addr=2000eb8c, run size=000001ec bytes, compression=lzss
	.bss: load addr=2000f108, load size=00000008 bytes, run addr=2000ed78, run size=000001d8 bytes, compression=zero_init


LINKER GENERATED HANDLER TABLE

__TI_handler_table @ 2000f0f8 records: 3, size/record: 4, table size: 12
	index: 0, handler: __TI_decompress_lzss
	index: 1, handler: __TI_decompress_none
	index: 2, handler: __TI_zero_init


GLOBAL SYMBOLS: SORTED ALPHABETICALLY BY Name 

address   name                           
-------   ----                           
2000eb89  C$$EXIT                        
2000e817  C$$IO$$                        
2000eae1  CPUcpsid                       
2000ef38  ClockP_ctrl                    
2000e619  ClockP_doTick                  
2000e619  ClockP_sysTickHandler          
2000e65d  HOSTclose                      
2000dfc5  HOSTlseek                      
2000e22d  HOSTopen                       
2000e345  HOSTread                       
2000e02d  HOSTrename                     
2000e6a1  HOSTunlink                     
2000e39d  HOSTwrite                      
2000da79  IntEnable                      
2000eb63  IntMasterDisable               
2000eaf5  IntVTableBaseSet               
2000ed78  __CIOBUF_                      
20004000  __STACK_END                    
00001000  __STACK_SIZE                   
00008000  __SYSMEM_SIZE                  
2000f110  __TI_CINIT_Base                
2000f120  __TI_CINIT_Limit               
2000f0f8  __TI_Handler_Table_Base        
2000f104  __TI_Handler_Table_Limit       
2000e6e5  __TI_auto_init_nobinit_nopinit 
2000e8c9  __TI_cleanup                   
2000ed54  __TI_cleanup_ptr               
2000dee1  __TI_closefile                 
2000e095  __TI_decompress_lzss           
2000eb55  __TI_decompress_none           
2000e4f1  __TI_doflush                   
2000ed58  __TI_dtors_ptr                 
2000ed5c  __TI_enable_exit_profile_output
2000ed44  __TI_ft_end                    
ffffffff  __TI_pprof_out_hndl            
2000c041  __TI_printfi                   
ffffffff  __TI_prof_data_size            
ffffffff  __TI_prof_data_start           
2000e8fd  __TI_readmsg                   
2000f080  __TI_static_base__             
2000ee98  __TI_tmpnams                   
2000e7e9  __TI_writemsg                  
2000e1c9  __TI_wrt_ok                    
2000eb31  __TI_zero_init_nomemset        
2000dce1  __aeabi_cdcmpeq                
2000dce1  __aeabi_cdcmple                
2000dd67  __aeabi_cdrcmple               
2000e5d1  __aeabi_d2iz                   
2000cecb  __aeabi_dadd                   
2000d1b5  __aeabi_ddiv                   
2000d645  __aeabi_dmul                   
2000cec1  __aeabi_dsub                   
2000eb6d  __aeabi_errno_addr             
2000e961  __aeabi_i2d                    
2000de67  __aeabi_idiv0                  
2000de67  __aeabi_ldiv0                  
2000dded  __aeabi_memclr                 
2000dded  __aeabi_memclr4                
2000dded  __aeabi_memclr8                
2000db21  __aeabi_memcpy                 
2000db21  __aeabi_memcpy4                
2000db21  __aeabi_memcpy8                
2000ddef  __aeabi_memset                 
2000ddef  __aeabi_memset4                
2000ddef  __aeabi_memset8                
2000ed50  __aeabi_stderr                 
2000ed48  __aeabi_stdin                  
2000ed4c  __aeabi_stdout                 
2000dbbd  __aeabi_uldivmod               
ffffffff  __binit__                      
ffffffff  __c_args__                     
UNDEFED   __mpu_init                     
20003000  __stack                        
2000e9bd  _c_int00_noargs                
2000ef50  _ctypes_                       
2000ec7c  _device                        
2000eb8c  _ftable                        
2000ed6c  _lock                          
2000ca8b  _nop                           
2000ecf4  _stream                        
20004040  _sys_memory                    
UNDEFED   _system_post_cinit             
2000eb85  _system_pre_init               
2000ed70  _unlock                        
2000eb89  abort                          
2000e53d  atoi                           
ffffffff  binit                          
2000e28d  close                          
2000eb75  copysign                       
2000eb75  copysignl                      
2000ed74  errno                          
2000e589  exit                           
2000e931  finddevice                     
2000dc55  fputc                          
2000d531  fputs                          
2000d81d  free                           
2000e2e9  frexp                          
2000e2e9  frexpl                         
2000e165  fseek                          
2000e729  getdevice                      
2000e821  initVectors                    
2000d8f5  ldexp                          
2000d8f5  ldexpl                         
2000e9e5  lseek                          
2000e44b  ltoa                           
2000d2ed  main                           
2000de69  malloc                         
2000ea7d  memccpy                        
2000ea5d  memchr                         
2000db21  memcpy                         
2000ddf5  memset                         
2000e859  minit                          
2000ef48  parmbuf                        
2000e0fd  printf                         
2000dc55  putc                           
2000e991  remove                         
2000ea99  resetISR                       
2000eaac  resetVectorAddr                
20004000  resetVectors                   
2000d8f5  scalbn                         
2000d8f5  scalbnl                        
2000d741  setvbuf                        
2000eacb  strchr                         
2000eab3  strcmp                         
2000eb09  strcpy                         
2000eb1d  strlen                         
2000e891  strncpy                        
2000e991  unlink                         
2000eb43  wcslen                         
2000ea35  write                          


GLOBAL SYMBOLS: SORTED BY Symbol Address 

address   name                           
-------   ----                           
00001000  __STACK_SIZE                   
00008000  __SYSMEM_SIZE                  
20003000  __stack                        
20004000  __STACK_END                    
20004000  resetVectors                   
20004040  _sys_memory                    
2000c041  __TI_printfi                   
2000ca8b  _nop                           
2000cec1  __aeabi_dsub                   
2000cecb  __aeabi_dadd                   
2000d1b5  __aeabi_ddiv                   
2000d2ed  main                           
2000d531  fputs                          
2000d645  __aeabi_dmul                   
2000d741  setvbuf                        
2000d81d  free                           
2000d8f5  ldexp                          
2000d8f5  ldexpl                         
2000d8f5  scalbn                         
2000d8f5  scalbnl                        
2000da79  IntEnable                      
2000db21  __aeabi_memcpy                 
2000db21  __aeabi_memcpy4                
2000db21  __aeabi_memcpy8                
2000db21  memcpy                         
2000dbbd  __aeabi_uldivmod               
2000dc55  fputc                          
2000dc55  putc                           
2000dce1  __aeabi_cdcmpeq                
2000dce1  __aeabi_cdcmple                
2000dd67  __aeabi_cdrcmple               
2000dded  __aeabi_memclr                 
2000dded  __aeabi_memclr4                
2000dded  __aeabi_memclr8                
2000ddef  __aeabi_memset                 
2000ddef  __aeabi_memset4                
2000ddef  __aeabi_memset8                
2000ddf5  memset                         
2000de67  __aeabi_idiv0                  
2000de67  __aeabi_ldiv0                  
2000de69  malloc                         
2000dee1  __TI_closefile                 
2000dfc5  HOSTlseek                      
2000e02d  HOSTrename                     
2000e095  __TI_decompress_lzss           
2000e0fd  printf                         
2000e165  fseek                          
2000e1c9  __TI_wrt_ok                    
2000e22d  HOSTopen                       
2000e28d  close                          
2000e2e9  frexp                          
2000e2e9  frexpl                         
2000e345  HOSTread                       
2000e39d  HOSTwrite                      
2000e44b  ltoa                           
2000e4f1  __TI_doflush                   
2000e53d  atoi                           
2000e589  exit                           
2000e5d1  __aeabi_d2iz                   
2000e619  ClockP_doTick                  
2000e619  ClockP_sysTickHandler          
2000e65d  HOSTclose                      
2000e6a1  HOSTunlink                     
2000e6e5  __TI_auto_init_nobinit_nopinit 
2000e729  getdevice                      
2000e7e9  __TI_writemsg                  
2000e817  C$$IO$$                        
2000e821  initVectors                    
2000e859  minit                          
2000e891  strncpy                        
2000e8c9  __TI_cleanup                   
2000e8fd  __TI_readmsg                   
2000e931  finddevice                     
2000e961  __aeabi_i2d                    
2000e991  remove                         
2000e991  unlink                         
2000e9bd  _c_int00_noargs                
2000e9e5  lseek                          
2000ea35  write                          
2000ea5d  memchr                         
2000ea7d  memccpy                        
2000ea99  resetISR                       
2000eaac  resetVectorAddr                
2000eab3  strcmp                         
2000eacb  strchr                         
2000eae1  CPUcpsid                       
2000eaf5  IntVTableBaseSet               
2000eb09  strcpy                         
2000eb1d  strlen                         
2000eb31  __TI_zero_init_nomemset        
2000eb43  wcslen                         
2000eb55  __TI_decompress_none           
2000eb63  IntMasterDisable               
2000eb6d  __aeabi_errno_addr             
2000eb75  copysign                       
2000eb75  copysignl                      
2000eb85  _system_pre_init               
2000eb89  C$$EXIT                        
2000eb89  abort                          
2000eb8c  _ftable                        
2000ec7c  _device                        
2000ecf4  _stream                        
2000ed44  __TI_ft_end                    
2000ed48  __aeabi_stdin                  
2000ed4c  __aeabi_stdout                 
2000ed50  __aeabi_stderr                 
2000ed54  __TI_cleanup_ptr               
2000ed58  __TI_dtors_ptr                 
2000ed5c  __TI_enable_exit_profile_output
2000ed6c  _lock                          
2000ed70  _unlock                        
2000ed74  errno                          
2000ed78  __CIOBUF_                      
2000ee98  __TI_tmpnams                   
2000ef38  ClockP_ctrl                    
2000ef48  parmbuf                        
2000ef50  _ctypes_                       
2000f080  __TI_static_base__             
2000f0f8  __TI_Handler_Table_Base        
2000f104  __TI_Handler_Table_Limit       
2000f110  __TI_CINIT_Base                
2000f120  __TI_CINIT_Limit               
ffffffff  __TI_pprof_out_hndl            
ffffffff  __TI_prof_data_size            
ffffffff  __TI_prof_data_start           
ffffffff  __binit__                      
ffffffff  __c_args__                     
ffffffff  binit                          
UNDEFED   __mpu_init                     
UNDEFED   _system_post_cinit             

[130 symbols]
