******************************************************************************
                  TI ARM Linker PC v18.12.2                    
******************************************************************************
>> Linked Thu Sep 12 17:02:24 2019

OUTPUT FILE NAME:   <opdr.2.1.1 nog eens.out>
ENTRY POINT SYMBOL: "resetISR"  address: 2000ee8d


MEMORY CONFIGURATION

         name            origin    length      used     unused   attr    fill
----------------------  --------  ---------  --------  --------  ----  --------
  SRAM2                 20000000   00004000  0000130c  00002cf4  RW X
  SRAM                  20004000   0003c000  0000b520  00030ae0  RW X


SEGMENT ALLOCATION MAP

run origin  load origin   length   init length attrs members
----------  ----------- ---------- ----------- ----- -------
20003000    20003000    00001000   00000000    rw-
  20003000    20003000    00001000   00000000    rw- .stack
20004000    20004000    00000040   00000040    r--
  20004000    20004000    00000040   00000040    r-- .resetVecs
20004040    20004040    00008000   00000000    rw-
  20004040    20004040    00008000   00000000    rw- .sysmem
2000c040    2000c040    00002f68   00002f68    r-x
  2000c040    2000c040    00002f68   00002f68    r-x .text
2000efa8    2000efa8    000003c8   00000000    rw-
  2000efa8    2000efa8    000001ec   00000000    rw- .data
  2000f198    2000f198    000001d8   00000000    rw- .bss
2000f370    2000f370    000001b8   000001b8    r--
  2000f370    2000f370    0000011c   0000011c    r-- .const
  2000f490    2000f490    00000098   00000098    r-- .cinit


SECTION ALLOCATION MAP

 output                                  attributes/
section   page    origin      length       input sections
--------  ----  ----------  ----------   ----------------
.text      0    2000c040    00002f68     
                  2000c040    00000a4e     rtsv7M4_T_le_eabi.lib : _printfi.c.obj (.text:__TI_printfi)
                  2000ca8e    00000002                           : _lock.c.obj (.text:_nop)
                  2000ca90    00000268                           : _printfi.c.obj (.text:_pconv_a)
                  2000ccf8    000001cc                           : _printfi.c.obj (.text:_pconv_g)
                  2000cec4    000001b6                           : fd_add_t2.asm.obj (.text)
                  2000d07a    00000002     nortos_cc32xx.aem4 : startup_cc32xx_ccs.oem4 (.text:busFaultHandler)
                  2000d07c    0000013c     rtsv7M4_T_le_eabi.lib : _printfi.c.obj (.text:_pconv_e)
                  2000d1b8    00000136                           : fd_div_t2.asm.obj (.text)
                  2000d2ee    00000002     nortos_cc32xx.aem4 : startup_cc32xx_ccs.oem4 (.text:defaultHandler)
                  2000d2f0    00000120     rtsv7M4_T_le_eabi.lib : _printfi.c.obj (.text:fcvt)
                  2000d410    00000114                           : fputs.c.obj (.text:fputs)
                  2000d524    000000fc                           : fd_mul_t2.asm.obj (.text)
                  2000d620    000000f4                           : memory.c.obj (.text:aligned_alloc)
                  2000d714    000000e8                           : memory.c.obj (.text:free)
                  2000d7fc    000000dc                           : setvbuf.c.obj (.text:setvbuf)
                  2000d8d8    000000d0                           : s_scalbn.c.obj (.text:scalbn)
                  2000d9a8    000000b1                           : _printfi.c.obj (.text:_ltostr)
                  2000da59    00000001     --HOLE-- [fill = 0]
                  2000da5a    00000002     nortos_cc32xx.aem4 : startup_cc32xx_ccs.oem4 (.text:faultISR)
                  2000da5c    000000a8     driverlib.a : interrupt.obj (.text:IntEnable)
                  2000db04    00000004     rtsv7M4_T_le_eabi.lib : printf.c.obj (.text:_outc)
                  2000db08    0000009e     main.obj (.text:main)
                  2000dba6    00000002     nortos_cc32xx.aem4 : startup_cc32xx_ccs.oem4 (.text:nmiISR)
                  2000dba8    0000009c     rtsv7M4_T_le_eabi.lib : _bufread.c.obj (.text:__TI_buff_read)
                  2000dc44    0000009c                           : memcpy_t2.asm.obj (.text)
                  2000dce0    00000096                           : ull_div_t2.asm.obj (.text)
                  2000dd76    00000002                           : div0.asm.obj (.text)
                  2000dd78    0000008c                           : fputc.c.obj (.text:fputc)
                  2000de04    00000086                           : fd_cmp_t2.asm.obj (.text:__aeabi_cdcmple)
                  2000de8a    00000086                           : fd_cmp_t2.asm.obj (.text:__aeabi_cdrcmple)
                  2000df10    00000084                           : fgetc.c.obj (.text:fgetc)
                  2000df94    0000007c                           : memory.c.obj (.text:split)
                  2000e010    0000007a     main.obj (.text:maakLijstLeeg)
                  2000e08a    0000007a     rtsv7M4_T_le_eabi.lib : memset_t2.asm.obj (.text)
                  2000e104    00000074                           : fclose.c.obj (.text:__TI_closefile)
                  2000e178    0000006e                           : _printfi.c.obj (.text:_mcpy)
                  2000e1e6    00000002     --HOLE-- [fill = 0]
                  2000e1e8    00000068                           : hostlseek.c.obj (.text:HOSTlseek)
                  2000e250    00000068                           : hostrename.c.obj (.text:HOSTrename)
                  2000e2b8    00000068                           : copy_decompress_lzss.c.obj (.text:decompress:lzss:__TI_decompress_lzss)
                  2000e320    00000068                           : printf.c.obj (.text:printf)
                  2000e388    00000064                           : fseek.c.obj (.text:fseek)
                  2000e3ec    00000062                           : _io_perm.c.obj (.text:__TI_wrt_ok)
                  2000e44e    00000002     --HOLE-- [fill = 0]
                  2000e450    00000060                           : hostopen.c.obj (.text:HOSTopen)
                  2000e4b0    00000060     main.obj (.text:zetBovenaanInLijst)
                  2000e510    0000005c     rtsv7M4_T_le_eabi.lib : close.c.obj (.text:close)
                  2000e56c    0000005c                           : s_frexp.c.obj (.text:frexp)
                  2000e5c8    00000058                           : hostread.c.obj (.text:HOSTread)
                  2000e620    00000058                           : hostwrite.c.obj (.text:HOSTwrite)
                  2000e678    00000056                           : _printfi.c.obj (.text:_pconv_f)
                  2000e6ce    00000002     --HOLE-- [fill = 0]
                  2000e6d0    00000056     main.obj (.text:printLijst)
                  2000e726    00000054     rtsv7M4_T_le_eabi.lib : ltoa.c.obj (.text:ltoa)
                  2000e77a    00000052                           : _printfi.c.obj (.text:_ecpy)
                  2000e7cc    0000004c                           : fflush.c.obj (.text:__TI_doflush)
                  2000e818    0000004c                           : atoi.c.obj (.text:atoi)
                  2000e864    0000004a                           : _io_perm.c.obj (.text:__TI_rd_ok)
                  2000e8ae    00000002     --HOLE-- [fill = 0]
                  2000e8b0    00000048                           : hosttime.c.obj (.text:HOSTtime)
                  2000e8f8    00000048                           : exit.c.obj (.text:exit)
                  2000e940    00000048                           : fd_toi_t2.asm.obj (.text)
                  2000e988    00000044     nortos_cc32xx.aem4 : ClockPSysTick_nortos.oem4 (.text:ClockP_sysTickHandler)
                  2000e9cc    00000044     rtsv7M4_T_le_eabi.lib : hostclose.c.obj (.text:HOSTclose)
                  2000ea10    00000044                           : hostunlink.c.obj (.text:HOSTunlink)
                  2000ea54    00000044                           : autoinit.c.obj (.text:__TI_auto_init_nobinit_nopinit:__TI_auto_init_nobinit_nopinit)
                  2000ea98    00000044                           : getdevice.c.obj (.text:getdevice)
                  2000eadc    00000004                           : printf.c.obj (.text:_outs)
                  2000eae0    00000042     main.obj (.text:leesNaam)
                  2000eb22    0000003e     rtsv7M4_T_le_eabi.lib : _printfi.c.obj (.text:_fcpy)
                  2000eb60    00000038                           : trgmsg.c.obj (.text:__TI_writemsg)
                  2000eb98    00000038     nortos_cc32xx.aem4 : startup_cc32xx_ccs.oem4 (.text:initVectors)
                  2000ebd0    00000036     rtsv7M4_T_le_eabi.lib : strncpy.c.obj (.text:strncpy)
                  2000ec06    00000002     --HOLE-- [fill = 0]
                  2000ec08    00000034                           : fopen.c.obj (.text:__TI_cleanup)
                  2000ec3c    00000034                           : trgmsg.c.obj (.text:__TI_readmsg)
                  2000ec70    00000034                           : rand.c.obj (.text:rand)
                  2000eca4    00000030                           : getdevice.c.obj (.text:finddevice)
                  2000ecd4    0000002e                           : i_tofd_t2.asm.obj (.text)
                  2000ed02    00000002     --HOLE-- [fill = 0]
                  2000ed04    0000002c                           : unlink.c.obj (.text:unlink)
                  2000ed30    00000028                           : memory.c.obj (.text:free_list_insert)
                  2000ed58    00000028                           : lseek.c.obj (.text:lseek)
                  2000ed80    00000028                           : read.c.obj (.text:read)
                  2000eda8    00000028                           : write.c.obj (.text:write)
                  2000edd0    00000024                           : boot_cortex_m.c.obj (.text:_c_int00_noargs:_c_int00_noargs)
                  2000edf4    00000024                           : rand.c.obj (.text:srand)
                  2000ee18    00000020                           : memchr.c.obj (.text:memchr)
                  2000ee38    0000001c                           : copy_zero_init.c.obj (.text:decompress:ZI:__TI_zero_init_nomemset:__TI_zero_init_nomemset)
                  2000ee54    0000001c                           : memory.c.obj (.text:free_list_remove)
                  2000ee70    0000001c                           : memccpy.c.obj (.text:memccpy)
                  2000ee8c    0000001a     nortos_cc32xx.aem4 : startup_cc32xx_ccs.oem4 (.text:resetISR)
                  2000eea6    00000018     rtsv7M4_T_le_eabi.lib : strcmp.c.obj (.text:strcmp)
                  2000eebe    00000016                           : strchr.c.obj (.text:strchr)
                  2000eed4    00000014     driverlib.a : cpu.obj (.text:CPUcpsid)
                  2000eee8    00000014                 : interrupt.obj (.text:IntVTableBaseSet)
                  2000eefc    00000014     rtsv7M4_T_le_eabi.lib : strcpy.c.obj (.text:strcpy)
                  2000ef10    00000014                           : strlen.c.obj (.text:strlen)
                  2000ef24    00000012                           : wcslen.c.obj (.text:wcslen)
                  2000ef36    00000002     --HOLE-- [fill = 0]
                  2000ef38    00000010                           : isprint.c.obj (.text:isprint)
                  2000ef48    0000000e                           : time.c.obj (.text:__time32)
                  2000ef56    0000000e                           : copy_decompress_none.c.obj (.text:decompress:none:__TI_decompress_none)
                  2000ef64    0000000c                           : s_copysign.c.obj (.text:copysign)
                  2000ef70    0000000c                           : fgetc.c.obj (.text:getchar)
                  2000ef7c    0000000a     driverlib.a : interrupt.obj (.text:IntMasterDisable)
                  2000ef86    00000002     --HOLE-- [fill = 0]
                  2000ef88    00000008     rtsv7M4_T_le_eabi.lib : errno.c.obj (.text:__aeabi_errno_addr)
                  2000ef90    00000008                           : memory.c.obj (.text:malloc)
                  2000ef98    00000008     main.obj (.text:speelSpel)
                  2000efa0    00000004     rtsv7M4_T_le_eabi.lib : pre_init.c.obj (.text:_system_pre_init)
                  2000efa4    00000004                           : exit.c.obj (.text:abort:abort)

.ramVecs   0    20000000    0000030c     NOLOAD SECTION
                  20000000    0000030c     nortos_cc32xx.aem4 : startup_cc32xx_ccs.oem4 (.ramVecs)

.stack     0    20003000    00001000     UNINITIALIZED
                  20003000    00000004     rtsv7M4_T_le_eabi.lib : boot_cortex_m.c.obj (.stack)
                  20003004    00000ffc     --HOLE--

.resetVecs 
*          0    20004000    00000040     
                  20004000    00000040     nortos_cc32xx.aem4 : startup_cc32xx_ccs.oem4 (.resetVecs:retain)

.sysmem    0    20004040    00008000     UNINITIALIZED
                  20004040    00000010     rtsv7M4_T_le_eabi.lib : memory.c.obj (.sysmem)
                  20004050    00007ff0     --HOLE--

.const     0    2000f370    0000011c     
                  2000f370    00000101     rtsv7M4_T_le_eabi.lib : ctype.c.obj (.const:.string:_ctypes_)
                  2000f471    00000003     --HOLE-- [fill = 0]
                  2000f474    00000018     driverlib.a : interrupt.obj (.const:g_pulEnRegs)

.cinit     0    2000f490    00000098     
                  2000f490    00000072     (.cinit..data.load) [load image, compression = lzss]
                  2000f502    00000002     --HOLE-- [fill = 0]
                  2000f504    0000000c     (__TI_handler_table)
                  2000f510    00000008     (.cinit..bss.load) [load image, compression = zero_init]
                  2000f518    00000010     (__TI_cinit_table)

.init_array 
*          0    20004000    00000000     UNINITIALIZED

.data      0    2000efa8    000001ec     UNINITIALIZED
                  2000efa8    000000f0     rtsv7M4_T_le_eabi.lib : defs.c.obj (.data:_ftable)
                  2000f098    00000078                           : host_device.c.obj (.data:_device)
                  2000f110    00000050                           : host_device.c.obj (.data:_stream)
                  2000f160    00000010                           : defs.c.obj (.data)
                  2000f170    0000000c                           : exit.c.obj (.data:$O1$$)
                  2000f17c    00000008                           : _lock.c.obj (.data:$O1$$)
                  2000f184    00000008                           : memory.c.obj (.data:$O1$$)
                  2000f18c    00000004                           : errno.c.obj (.data)
                  2000f190    00000004                           : rand.c.obj (.data)

.bss       0    2000f198    000001d8     UNINITIALIZED
                  2000f198    00000120     rtsv7M4_T_le_eabi.lib : trgmsg.c.obj (.bss:_CIOBUF_)
                  2000f2b8    000000a0     (.common:__TI_tmpnams)
                  2000f358    00000010     (.common:ClockP_ctrl)
                  2000f368    00000008     (.common:parmbuf)

MODULE SUMMARY

       Module                       code    ro data   rw data
       ------                       ----    -------   -------
    .\
       main.obj                     536     0         0      
    +--+----------------------------+-------+---------+---------+
       Total:                       536     0         0      
                                                             
    C:/ti/simplelink_cc32xx_sdk_2_20_00_10/kernel/nortos/lib/nortos_cc32xx.aem4
       startup_cc32xx_ccs.oem4      90      64        780    
       ClockPSysTick_nortos.oem4    68      0         16     
    +--+----------------------------+-------+---------+---------+
       Total:                       158     64        796    
                                                             
    C:/ti/simplelink_cc32xx_sdk_2_20_00_10/source/ti/devices/cc32xx/driverlib/ccs/Release/driverlib.a
       interrupt.obj                198     24        0      
       cpu.obj                      20      0         0      
    +--+----------------------------+-------+---------+---------+
       Total:                       218     24        0      
                                                             
    C:\ti\ccs\tools\compiler\ti-cgt-arm_18.12.2.LTS\lib\rtsv7M4_T_le_eabi.lib
       _printfi.c.obj               4835    0         0      
       memory.c.obj                 676     0         8      
       fd_add_t2.asm.obj            438     0         0      
       defs.c.obj                   0       0         416    
       trgmsg.c.obj                 108     0         288    
       fd_div_t2.asm.obj            310     0         0      
       fputs.c.obj                  276     0         0      
       fd_cmp_t2.asm.obj            268     0         0      
       ctype.c.obj                  0       257       0      
       fd_mul_t2.asm.obj            252     0         0      
       setvbuf.c.obj                220     0         0      
       s_scalbn.c.obj               208     0         0      
       host_device.c.obj            0       0         200    
       _io_perm.c.obj               172     0         0      
       _bufread.c.obj               156     0         0      
       memcpy_t2.asm.obj            156     0         0      
       ull_div_t2.asm.obj           150     0         0      
       fgetc.c.obj                  144     0         0      
       fputc.c.obj                  140     0         0      
       memset_t2.asm.obj            122     0         0      
       fclose.c.obj                 116     0         0      
       getdevice.c.obj              116     0         0      
       printf.c.obj                 112     0         0      
       copy_decompress_lzss.c.obj   104     0         0      
       hostlseek.c.obj              104     0         0      
       hostopen.c.obj               96      0         8      
       hostrename.c.obj             104     0         0      
       fseek.c.obj                  100     0         0      
       close.c.obj                  92      0         0      
       rand.c.obj                   88      0         4      
       s_frexp.c.obj                92      0         0      
       exit.c.obj                   76      0         12     
       hostread.c.obj               88      0         0      
       hostwrite.c.obj              88      0         0      
       ltoa.c.obj                   84      0         0      
       atoi.c.obj                   76      0         0      
       fflush.c.obj                 76      0         0      
       fd_toi_t2.asm.obj            72      0         0      
       hosttime.c.obj               72      0         0      
       autoinit.c.obj               68      0         0      
       hostclose.c.obj              68      0         0      
       hostunlink.c.obj             68      0         0      
       strncpy.c.obj                54      0         0      
       fopen.c.obj                  52      0         0      
       i_tofd_t2.asm.obj            46      0         0      
       unlink.c.obj                 44      0         0      
       lseek.c.obj                  40      0         0      
       read.c.obj                   40      0         0      
       write.c.obj                  40      0         0      
       boot_cortex_m.c.obj          36      0         0      
       memchr.c.obj                 32      0         0      
       copy_zero_init.c.obj         28      0         0      
       memccpy.c.obj                28      0         0      
       strcmp.c.obj                 24      0         0      
       strchr.c.obj                 22      0         0      
       strcpy.c.obj                 20      0         0      
       strlen.c.obj                 20      0         0      
       wcslen.c.obj                 18      0         0      
       isprint.c.obj                16      0         0      
       copy_decompress_none.c.obj   14      0         0      
       time.c.obj                   14      0         0      
       errno.c.obj                  8       0         4      
       s_copysign.c.obj             12      0         0      
       _lock.c.obj                  2       0         8      
       pre_init.c.obj               4       0         0      
       div0.asm.obj                 2       0         0      
    +--+----------------------------+-------+---------+---------+
       Total:                       11207   257       948    
                                                             
       Heap:                        0       0         32768  
       Stack:                       0       0         4096   
       Linker Generated:            0       150       0      
    +--+----------------------------+-------+---------+---------+
       Grand Total:                 12119   495       38608  


LINKER GENERATED COPY TABLES

__TI_cinit_table @ 2000f518 records: 2, size/record: 8, table size: 16
	.data: load addr=2000f490, load size=00000072 bytes, run addr=2000efa8, run size=000001ec bytes, compression=lzss
	.bss: load addr=2000f510, load size=00000008 bytes, run addr=2000f198, run size=000001d8 bytes, compression=zero_init


LINKER GENERATED HANDLER TABLE

__TI_handler_table @ 2000f504 records: 3, size/record: 4, table size: 12
	index: 0, handler: __TI_decompress_lzss
	index: 1, handler: __TI_decompress_none
	index: 2, handler: __TI_zero_init


GLOBAL SYMBOLS: SORTED ALPHABETICALLY BY Name 

address   name                           
-------   ----                           
2000efa5  C$$EXIT                        
2000eb8f  C$$IO$$                        
2000eed5  CPUcpsid                       
2000f358  ClockP_ctrl                    
2000e989  ClockP_doTick                  
2000e989  ClockP_sysTickHandler          
2000e9cd  HOSTclose                      
2000e1e9  HOSTlseek                      
2000e451  HOSTopen                       
2000e5c9  HOSTread                       
2000e251  HOSTrename                     
2000e8b1  HOSTtime                       
2000ea11  HOSTunlink                     
2000e621  HOSTwrite                      
2000da5d  IntEnable                      
2000ef7d  IntMasterDisable               
2000eee9  IntVTableBaseSet               
2000f198  __CIOBUF_                      
20004000  __STACK_END                    
00001000  __STACK_SIZE                   
00008000  __SYSMEM_SIZE                  
2000f518  __TI_CINIT_Base                
2000f528  __TI_CINIT_Limit               
2000f504  __TI_Handler_Table_Base        
2000f510  __TI_Handler_Table_Limit       
2000ea55  __TI_auto_init_nobinit_nopinit 
2000dba9  __TI_buff_read                 
2000ec09  __TI_cleanup                   
2000f170  __TI_cleanup_ptr               
2000e105  __TI_closefile                 
2000e2b9  __TI_decompress_lzss           
2000ef57  __TI_decompress_none           
2000e7cd  __TI_doflush                   
2000f174  __TI_dtors_ptr                 
2000f178  __TI_enable_exit_profile_output
2000f160  __TI_ft_end                    
ffffffff  __TI_pprof_out_hndl            
2000c041  __TI_printfi                   
ffffffff  __TI_prof_data_size            
ffffffff  __TI_prof_data_start           
2000e865  __TI_rd_ok                     
2000ec3d  __TI_readmsg                   
2000f490  __TI_static_base__             
2000f2b8  __TI_tmpnams                   
2000eb61  __TI_writemsg                  
2000e3ed  __TI_wrt_ok                    
2000ee39  __TI_zero_init_nomemset        
2000de05  __aeabi_cdcmpeq                
2000de05  __aeabi_cdcmple                
2000de8b  __aeabi_cdrcmple               
2000e941  __aeabi_d2iz                   
2000cecf  __aeabi_dadd                   
2000d1b9  __aeabi_ddiv                   
2000d525  __aeabi_dmul                   
2000cec5  __aeabi_dsub                   
2000ef89  __aeabi_errno_addr             
2000ecd5  __aeabi_i2d                    
2000dd77  __aeabi_idiv0                  
2000dd77  __aeabi_ldiv0                  
2000e08b  __aeabi_memclr                 
2000e08b  __aeabi_memclr4                
2000e08b  __aeabi_memclr8                
2000dc45  __aeabi_memcpy                 
2000dc45  __aeabi_memcpy4                
2000dc45  __aeabi_memcpy8                
2000e08d  __aeabi_memset                 
2000e08d  __aeabi_memset4                
2000e08d  __aeabi_memset8                
2000f16c  __aeabi_stderr                 
2000f164  __aeabi_stdin                  
2000f168  __aeabi_stdout                 
2000dce1  __aeabi_uldivmod               
ffffffff  __binit__                      
ffffffff  __c_args__                     
UNDEFED   __mpu_init                     
20003000  __stack                        
2000ef49  __time32                       
2000edd1  _c_int00_noargs                
2000f370  _ctypes_                       
2000f098  _device                        
2000efa8  _ftable                        
2000f17c  _lock                          
2000ca8f  _nop                           
2000f110  _stream                        
20004040  _sys_memory                    
UNDEFED   _system_post_cinit             
2000efa1  _system_pre_init               
2000f180  _unlock                        
2000efa5  abort                          
2000d621  aligned_alloc                  
2000e819  atoi                           
ffffffff  binit                          
2000e511  close                          
2000ef65  copysign                       
2000ef65  copysignl                      
2000f18c  errno                          
2000e8f9  exit                           
2000df11  fgetc                          
2000eca5  finddevice                     
2000dd79  fputc                          
2000d411  fputs                          
2000d715  free                           
2000e56d  frexp                          
2000e56d  frexpl                         
2000e389  fseek                          
2000df11  getc                           
2000ef71  getchar                        
2000ea99  getdevice                      
2000eb99  initVectors                    
2000ef39  isprint                        
2000d8d9  ldexp                          
2000d8d9  ldexpl                         
2000eae1  leesNaam                       
2000ed59  lseek                          
2000e727  ltoa                           
2000e011  maakLijstLeeg                  
2000db09  main                           
2000ef91  malloc                         
2000d621  memalign                       
2000ee71  memccpy                        
2000ee19  memchr                         
2000dc45  memcpy                         
2000e093  memset                         
2000f368  parmbuf                        
2000e6d1  printLijst                     
2000e321  printf                         
2000dd79  putc                           
2000ec71  rand                           
2000ed81  read                           
2000ed05  remove                         
2000ee8d  resetISR                       
2000eea0  resetVectorAddr                
20004000  resetVectors                   
2000d8d9  scalbn                         
2000d8d9  scalbnl                        
2000d7fd  setvbuf                        
2000ef99  speelSpel                      
2000edf5  srand                          
2000eebf  strchr                         
2000eea7  strcmp                         
2000eefd  strcpy                         
2000ef11  strlen                         
2000ebd1  strncpy                        
2000ef49  time                           
2000ed05  unlink                         
2000ef25  wcslen                         
2000eda9  write                          
2000e4b1  zetBovenaanInLijst             


GLOBAL SYMBOLS: SORTED BY Symbol Address 

address   name                           
-------   ----                           
00001000  __STACK_SIZE                   
00008000  __SYSMEM_SIZE                  
20003000  __stack                        
20004000  __STACK_END                    
20004000  resetVectors                   
20004040  _sys_memory                    
2000c041  __TI_printfi                   
2000ca8f  _nop                           
2000cec5  __aeabi_dsub                   
2000cecf  __aeabi_dadd                   
2000d1b9  __aeabi_ddiv                   
2000d411  fputs                          
2000d525  __aeabi_dmul                   
2000d621  aligned_alloc                  
2000d621  memalign                       
2000d715  free                           
2000d7fd  setvbuf                        
2000d8d9  ldexp                          
2000d8d9  ldexpl                         
2000d8d9  scalbn                         
2000d8d9  scalbnl                        
2000da5d  IntEnable                      
2000db09  main                           
2000dba9  __TI_buff_read                 
2000dc45  __aeabi_memcpy                 
2000dc45  __aeabi_memcpy4                
2000dc45  __aeabi_memcpy8                
2000dc45  memcpy                         
2000dce1  __aeabi_uldivmod               
2000dd77  __aeabi_idiv0                  
2000dd77  __aeabi_ldiv0                  
2000dd79  fputc                          
2000dd79  putc                           
2000de05  __aeabi_cdcmpeq                
2000de05  __aeabi_cdcmple                
2000de8b  __aeabi_cdrcmple               
2000df11  fgetc                          
2000df11  getc                           
2000e011  maakLijstLeeg                  
2000e08b  __aeabi_memclr                 
2000e08b  __aeabi_memclr4                
2000e08b  __aeabi_memclr8                
2000e08d  __aeabi_memset                 
2000e08d  __aeabi_memset4                
2000e08d  __aeabi_memset8                
2000e093  memset                         
2000e105  __TI_closefile                 
2000e1e9  HOSTlseek                      
2000e251  HOSTrename                     
2000e2b9  __TI_decompress_lzss           
2000e321  printf                         
2000e389  fseek                          
2000e3ed  __TI_wrt_ok                    
2000e451  HOSTopen                       
2000e4b1  zetBovenaanInLijst             
2000e511  close                          
2000e56d  frexp                          
2000e56d  frexpl                         
2000e5c9  HOSTread                       
2000e621  HOSTwrite                      
2000e6d1  printLijst                     
2000e727  ltoa                           
2000e7cd  __TI_doflush                   
2000e819  atoi                           
2000e865  __TI_rd_ok                     
2000e8b1  HOSTtime                       
2000e8f9  exit                           
2000e941  __aeabi_d2iz                   
2000e989  ClockP_doTick                  
2000e989  ClockP_sysTickHandler          
2000e9cd  HOSTclose                      
2000ea11  HOSTunlink                     
2000ea55  __TI_auto_init_nobinit_nopinit 
2000ea99  getdevice                      
2000eae1  leesNaam                       
2000eb61  __TI_writemsg                  
2000eb8f  C$$IO$$                        
2000eb99  initVectors                    
2000ebd1  strncpy                        
2000ec09  __TI_cleanup                   
2000ec3d  __TI_readmsg                   
2000ec71  rand                           
2000eca5  finddevice                     
2000ecd5  __aeabi_i2d                    
2000ed05  remove                         
2000ed05  unlink                         
2000ed59  lseek                          
2000ed81  read                           
2000eda9  write                          
2000edd1  _c_int00_noargs                
2000edf5  srand                          
2000ee19  memchr                         
2000ee39  __TI_zero_init_nomemset        
2000ee71  memccpy                        
2000ee8d  resetISR                       
2000eea0  resetVectorAddr                
2000eea7  strcmp                         
2000eebf  strchr                         
2000eed5  CPUcpsid                       
2000eee9  IntVTableBaseSet               
2000eefd  strcpy                         
2000ef11  strlen                         
2000ef25  wcslen                         
2000ef39  isprint                        
2000ef49  __time32                       
2000ef49  time                           
2000ef57  __TI_decompress_none           
2000ef65  copysign                       
2000ef65  copysignl                      
2000ef71  getchar                        
2000ef7d  IntMasterDisable               
2000ef89  __aeabi_errno_addr             
2000ef91  malloc                         
2000ef99  speelSpel                      
2000efa1  _system_pre_init               
2000efa5  C$$EXIT                        
2000efa5  abort                          
2000efa8  _ftable                        
2000f098  _device                        
2000f110  _stream                        
2000f160  __TI_ft_end                    
2000f164  __aeabi_stdin                  
2000f168  __aeabi_stdout                 
2000f16c  __aeabi_stderr                 
2000f170  __TI_cleanup_ptr               
2000f174  __TI_dtors_ptr                 
2000f178  __TI_enable_exit_profile_output
2000f17c  _lock                          
2000f180  _unlock                        
2000f18c  errno                          
2000f198  __CIOBUF_                      
2000f2b8  __TI_tmpnams                   
2000f358  ClockP_ctrl                    
2000f368  parmbuf                        
2000f370  _ctypes_                       
2000f490  __TI_static_base__             
2000f504  __TI_Handler_Table_Base        
2000f510  __TI_Handler_Table_Limit       
2000f518  __TI_CINIT_Base                
2000f528  __TI_CINIT_Limit               
ffffffff  __TI_pprof_out_hndl            
ffffffff  __TI_prof_data_size            
ffffffff  __TI_prof_data_start           
ffffffff  __binit__                      
ffffffff  __c_args__                     
ffffffff  binit                          
UNDEFED   __mpu_init                     
UNDEFED   _system_post_cinit             

[148 symbols]
