******************************************************************************
                  TI ARM Linker PC v18.12.2                    
******************************************************************************
>> Linked Fri Sep  6 11:42:35 2019

OUTPUT FILE NAME:   <opdr.1.2.2.out>
ENTRY POINT SYMBOL: "resetISR"  address: 2000ebb1


MEMORY CONFIGURATION

         name            origin    length      used     unused   attr    fill
----------------------  --------  ---------  --------  --------  ----  --------
  SRAM2                 20000000   00004000  0000130c  00002cf4  RW X
  SRAM                  20004000   0003c000  0000b208  00030df8  RW X


SEGMENT ALLOCATION MAP

run origin  load origin   length   init length attrs members
----------  ----------- ---------- ----------- ----- -------
20003000    20003000    00001000   00000000    rw-
  20003000    20003000    00001000   00000000    rw- .stack
20004000    20004000    00000040   00000040    r--
  20004000    20004000    00000040   00000040    r-- .resetVecs
20004040    20004040    00008000   00000000    rw-
  20004040    20004040    00008000   00000000    rw- .sysmem
2000c040    2000c040    00002c54   00002c54    r-x
  2000c040    2000c040    00002c54   00002c54    r-x .text
2000ec94    2000ec94    000001e8   00000000    rw-
  2000ec94    2000ec94    000001e8   00000000    rw- .data
2000ee80    2000ee80    000001d8   00000000    rw-
  2000ee80    2000ee80    000001d8   00000000    rw- .bss
2000f058    2000f058    000001b8   000001b8    r--
  2000f058    2000f058    0000011c   0000011c    r-- .const
  2000f178    2000f178    00000098   00000098    r-- .cinit


SECTION ALLOCATION MAP

 output                                  attributes/
section   page    origin      length       input sections
--------  ----  ----------  ----------   ----------------
.text      0    2000c040    00002c54     
                  2000c040    00000a4e     rtsv7M4_T_le_eabi.lib : _printfi.c.obj (.text:__TI_printfi)
                  2000ca8e    00000002                           : _lock.c.obj (.text:_nop)
                  2000ca90    00000268                           : _printfi.c.obj (.text:_pconv_a)
                  2000ccf8    000001cc                           : _printfi.c.obj (.text:_pconv_g)
                  2000cec4    000001b6                           : fd_add_t2.asm.obj (.text)
                  2000d07a    00000002     nortos_cc32xx.aem4 : startup_cc32xx_ccs.oem4 (.text:busFaultHandler)
                  2000d07c    0000013c     rtsv7M4_T_le_eabi.lib : _printfi.c.obj (.text:_pconv_e)
                  2000d1b8    00000136                           : fd_div_t2.asm.obj (.text)
                  2000d2ee    00000002     nortos_cc32xx.aem4 : startup_cc32xx_ccs.oem4 (.text:defaultHandler)
                  2000d2f0    00000120     rtsv7M4_T_le_eabi.lib : _printfi.c.obj (.text:fcvt)
                  2000d410    00000114                           : fputs.c.obj (.text:fputs)
                  2000d524    00000004                           : printf.c.obj (.text:_outc)
                  2000d528    0000010c     main.obj (.text:main)
                  2000d634    000000fc     rtsv7M4_T_le_eabi.lib : fd_mul_t2.asm.obj (.text)
                  2000d730    000000f4                           : memory.c.obj (.text:aligned_alloc)
                  2000d824    000000e8                           : memory.c.obj (.text:free)
                  2000d90c    000000dc                           : setvbuf.c.obj (.text:setvbuf)
                  2000d9e8    000000d0                           : s_scalbn.c.obj (.text:scalbn)
                  2000dab8    000000b1                           : _printfi.c.obj (.text:_ltostr)
                  2000db69    00000001     --HOLE-- [fill = 0]
                  2000db6a    00000002     nortos_cc32xx.aem4 : startup_cc32xx_ccs.oem4 (.text:faultISR)
                  2000db6c    000000a8     driverlib.a : interrupt.obj (.text:IntEnable)
                  2000dc14    0000009c     rtsv7M4_T_le_eabi.lib : memcpy_t2.asm.obj (.text)
                  2000dcb0    00000096                           : ull_div_t2.asm.obj (.text)
                  2000dd46    00000002     nortos_cc32xx.aem4 : startup_cc32xx_ccs.oem4 (.text:nmiISR)
                  2000dd48    0000008c     rtsv7M4_T_le_eabi.lib : fputc.c.obj (.text:fputc)
                  2000ddd4    00000086                           : fd_cmp_t2.asm.obj (.text:__aeabi_cdcmple)
                  2000de5a    00000086                           : fd_cmp_t2.asm.obj (.text:__aeabi_cdrcmple)
                  2000dee0    0000007c                           : memory.c.obj (.text:split)
                  2000df5c    0000007a                           : memset_t2.asm.obj (.text)
                  2000dfd6    00000002                           : div0.asm.obj (.text)
                  2000dfd8    00000074                           : fclose.c.obj (.text:__TI_closefile)
                  2000e04c    0000006e                           : _printfi.c.obj (.text:_mcpy)
                  2000e0ba    00000002     --HOLE-- [fill = 0]
                  2000e0bc    00000068                           : hostlseek.c.obj (.text:HOSTlseek)
                  2000e124    00000068                           : hostrename.c.obj (.text:HOSTrename)
                  2000e18c    00000068                           : copy_decompress_lzss.c.obj (.text:decompress:lzss:__TI_decompress_lzss)
                  2000e1f4    00000068                           : printf.c.obj (.text:printf)
                  2000e25c    00000064                           : fseek.c.obj (.text:fseek)
                  2000e2c0    00000062                           : _io_perm.c.obj (.text:__TI_wrt_ok)
                  2000e322    00000002     --HOLE-- [fill = 0]
                  2000e324    00000060                           : hostopen.c.obj (.text:HOSTopen)
                  2000e384    0000005c                           : close.c.obj (.text:close)
                  2000e3e0    0000005c                           : s_frexp.c.obj (.text:frexp)
                  2000e43c    00000058                           : hostread.c.obj (.text:HOSTread)
                  2000e494    00000058                           : hostwrite.c.obj (.text:HOSTwrite)
                  2000e4ec    00000056                           : _printfi.c.obj (.text:_pconv_f)
                  2000e542    00000054                           : ltoa.c.obj (.text:ltoa)
                  2000e596    00000052                           : _printfi.c.obj (.text:_ecpy)
                  2000e5e8    0000004c                           : fflush.c.obj (.text:__TI_doflush)
                  2000e634    0000004c                           : atoi.c.obj (.text:atoi)
                  2000e680    00000048                           : exit.c.obj (.text:exit)
                  2000e6c8    00000048                           : fd_toi_t2.asm.obj (.text)
                  2000e710    00000044     nortos_cc32xx.aem4 : ClockPSysTick_nortos.oem4 (.text:ClockP_sysTickHandler)
                  2000e754    00000044     rtsv7M4_T_le_eabi.lib : hostclose.c.obj (.text:HOSTclose)
                  2000e798    00000044                           : hostunlink.c.obj (.text:HOSTunlink)
                  2000e7dc    00000044                           : autoinit.c.obj (.text:__TI_auto_init_nobinit_nopinit:__TI_auto_init_nobinit_nopinit)
                  2000e820    00000044                           : getdevice.c.obj (.text:getdevice)
                  2000e864    0000003e                           : _printfi.c.obj (.text:_fcpy)
                  2000e8a2    00000002     --HOLE-- [fill = 0]
                  2000e8a4    00000038                           : trgmsg.c.obj (.text:__TI_writemsg)
                  2000e8dc    00000038     nortos_cc32xx.aem4 : startup_cc32xx_ccs.oem4 (.text:initVectors)
                  2000e914    00000036     rtsv7M4_T_le_eabi.lib : strncpy.c.obj (.text:strncpy)
                  2000e94a    00000002     --HOLE-- [fill = 0]
                  2000e94c    00000034                           : fopen.c.obj (.text:__TI_cleanup)
                  2000e980    00000034                           : trgmsg.c.obj (.text:__TI_readmsg)
                  2000e9b4    00000030                           : getdevice.c.obj (.text:finddevice)
                  2000e9e4    0000002e                           : i_tofd_t2.asm.obj (.text)
                  2000ea12    00000004                           : printf.c.obj (.text:_outs)
                  2000ea16    00000002     --HOLE-- [fill = 0]
                  2000ea18    0000002e     main.obj (.text:strlen_met_index)
                  2000ea46    00000002     --HOLE-- [fill = 0]
                  2000ea48    0000002c     rtsv7M4_T_le_eabi.lib : unlink.c.obj (.text:unlink)
                  2000ea74    00000028                           : memory.c.obj (.text:free_list_insert)
                  2000ea9c    00000028                           : lseek.c.obj (.text:lseek)
                  2000eac4    00000028                           : write.c.obj (.text:write)
                  2000eaec    00000004                           : pre_init.c.obj (.text:_system_pre_init)
                  2000eaf0    00000026     main.obj (.text:strlen_met_pointer)
                  2000eb16    00000002     --HOLE-- [fill = 0]
                  2000eb18    00000024     rtsv7M4_T_le_eabi.lib : boot_cortex_m.c.obj (.text:_c_int00_noargs:_c_int00_noargs)
                  2000eb3c    00000020                           : memchr.c.obj (.text:memchr)
                  2000eb5c    0000001c                           : copy_zero_init.c.obj (.text:decompress:ZI:__TI_zero_init_nomemset:__TI_zero_init_nomemset)
                  2000eb78    0000001c                           : memory.c.obj (.text:free_list_remove)
                  2000eb94    0000001c                           : memccpy.c.obj (.text:memccpy)
                  2000ebb0    0000001a     nortos_cc32xx.aem4 : startup_cc32xx_ccs.oem4 (.text:resetISR)
                  2000ebca    00000018     rtsv7M4_T_le_eabi.lib : strcmp.c.obj (.text:strcmp)
                  2000ebe2    00000016                           : strchr.c.obj (.text:strchr)
                  2000ebf8    00000014     driverlib.a : cpu.obj (.text:CPUcpsid)
                  2000ec0c    00000014                 : interrupt.obj (.text:IntVTableBaseSet)
                  2000ec20    00000014     rtsv7M4_T_le_eabi.lib : strcpy.c.obj (.text:strcpy)
                  2000ec34    00000014                           : strlen.c.obj (.text:strlen)
                  2000ec48    00000012                           : wcslen.c.obj (.text:wcslen)
                  2000ec5a    0000000e                           : copy_decompress_none.c.obj (.text:decompress:none:__TI_decompress_none)
                  2000ec68    0000000c                           : s_copysign.c.obj (.text:copysign)
                  2000ec74    0000000a     driverlib.a : interrupt.obj (.text:IntMasterDisable)
                  2000ec7e    00000002     --HOLE-- [fill = 0]
                  2000ec80    00000008     rtsv7M4_T_le_eabi.lib : errno.c.obj (.text:__aeabi_errno_addr)
                  2000ec88    00000008                           : memory.c.obj (.text:malloc)
                  2000ec90    00000004                           : exit.c.obj (.text:abort:abort)

.ramVecs   0    20000000    0000030c     NOLOAD SECTION
                  20000000    0000030c     nortos_cc32xx.aem4 : startup_cc32xx_ccs.oem4 (.ramVecs)

.stack     0    20003000    00001000     UNINITIALIZED
                  20003000    00000004     rtsv7M4_T_le_eabi.lib : boot_cortex_m.c.obj (.stack)
                  20003004    00000ffc     --HOLE--

.resetVecs 
*          0    20004000    00000040     
                  20004000    00000040     nortos_cc32xx.aem4 : startup_cc32xx_ccs.oem4 (.resetVecs:retain)

.sysmem    0    20004040    00008000     UNINITIALIZED
                  20004040    00000010     rtsv7M4_T_le_eabi.lib : memory.c.obj (.sysmem)
                  20004050    00007ff0     --HOLE--

.const     0    2000f058    0000011c     
                  2000f058    00000101     rtsv7M4_T_le_eabi.lib : ctype.c.obj (.const:.string:_ctypes_)
                  2000f159    00000003     --HOLE-- [fill = 0]
                  2000f15c    00000018     driverlib.a : interrupt.obj (.const:g_pulEnRegs)

.cinit     0    2000f178    00000098     
                  2000f178    0000006e     (.cinit..data.load) [load image, compression = lzss]
                  2000f1e6    00000002     --HOLE-- [fill = 0]
                  2000f1e8    0000000c     (__TI_handler_table)
                  2000f1f4    00000004     --HOLE-- [fill = 0]
                  2000f1f8    00000008     (.cinit..bss.load) [load image, compression = zero_init]
                  2000f200    00000010     (__TI_cinit_table)

.init_array 
*          0    20004000    00000000     UNINITIALIZED

.data      0    2000ec94    000001e8     UNINITIALIZED
                  2000ec94    000000f0     rtsv7M4_T_le_eabi.lib : defs.c.obj (.data:_ftable)
                  2000ed84    00000078                           : host_device.c.obj (.data:_device)
                  2000edfc    00000050                           : host_device.c.obj (.data:_stream)
                  2000ee4c    00000010                           : defs.c.obj (.data)
                  2000ee5c    0000000c                           : exit.c.obj (.data:$O1$$)
                  2000ee68    00000008                           : _lock.c.obj (.data:$O1$$)
                  2000ee70    00000008                           : memory.c.obj (.data:$O1$$)
                  2000ee78    00000004                           : errno.c.obj (.data)

.bss       0    2000ee80    000001d8     UNINITIALIZED
                  2000ee80    00000120     rtsv7M4_T_le_eabi.lib : trgmsg.c.obj (.bss:_CIOBUF_)
                  2000efa0    000000a0     (.common:__TI_tmpnams)
                  2000f040    00000010     (.common:ClockP_ctrl)
                  2000f050    00000008     (.common:parmbuf)

MODULE SUMMARY

       Module                       code    ro data   rw data
       ------                       ----    -------   -------
    .\
       main.obj                     352     0         0      
    +--+----------------------------+-------+---------+---------+
       Total:                       352     0         0      
                                                             
    C:/ti/simplelink_cc32xx_sdk_2_40_01_01/kernel/nortos/lib/nortos_cc32xx.aem4
       startup_cc32xx_ccs.oem4      90      64        780    
       ClockPSysTick_nortos.oem4    68      0         16     
    +--+----------------------------+-------+---------+---------+
       Total:                       158     64        796    
                                                             
    C:/ti/simplelink_cc32xx_sdk_2_40_01_01/source/ti/devices/cc32xx/driverlib/ccs/Release/driverlib.a
       interrupt.obj                198     24        0      
       cpu.obj                      20      0         0      
    +--+----------------------------+-------+---------+---------+
       Total:                       218     24        0      
                                                             
    C:\ti\ccs\tools\compiler\ti-cgt-arm_18.12.2.LTS\lib\rtsv7M4_T_le_eabi.lib
       _printfi.c.obj               4835    0         0      
       memory.c.obj                 676     0         8      
       fd_add_t2.asm.obj            438     0         0      
       defs.c.obj                   0       0         416    
       trgmsg.c.obj                 108     0         288    
       fd_div_t2.asm.obj            310     0         0      
       fputs.c.obj                  276     0         0      
       fd_cmp_t2.asm.obj            268     0         0      
       ctype.c.obj                  0       257       0      
       fd_mul_t2.asm.obj            252     0         0      
       setvbuf.c.obj                220     0         0      
       s_scalbn.c.obj               208     0         0      
       host_device.c.obj            0       0         200    
       memcpy_t2.asm.obj            156     0         0      
       ull_div_t2.asm.obj           150     0         0      
       fputc.c.obj                  140     0         0      
       memset_t2.asm.obj            122     0         0      
       fclose.c.obj                 116     0         0      
       getdevice.c.obj              116     0         0      
       printf.c.obj                 112     0         0      
       copy_decompress_lzss.c.obj   104     0         0      
       hostlseek.c.obj              104     0         0      
       hostopen.c.obj               96      0         8      
       hostrename.c.obj             104     0         0      
       fseek.c.obj                  100     0         0      
       _io_perm.c.obj               98      0         0      
       close.c.obj                  92      0         0      
       s_frexp.c.obj                92      0         0      
       exit.c.obj                   76      0         12     
       hostread.c.obj               88      0         0      
       hostwrite.c.obj              88      0         0      
       ltoa.c.obj                   84      0         0      
       atoi.c.obj                   76      0         0      
       fflush.c.obj                 76      0         0      
       fd_toi_t2.asm.obj            72      0         0      
       autoinit.c.obj               68      0         0      
       hostclose.c.obj              68      0         0      
       hostunlink.c.obj             68      0         0      
       strncpy.c.obj                54      0         0      
       fopen.c.obj                  52      0         0      
       i_tofd_t2.asm.obj            46      0         0      
       unlink.c.obj                 44      0         0      
       lseek.c.obj                  40      0         0      
       write.c.obj                  40      0         0      
       boot_cortex_m.c.obj          36      0         0      
       memchr.c.obj                 32      0         0      
       copy_zero_init.c.obj         28      0         0      
       memccpy.c.obj                28      0         0      
       strcmp.c.obj                 24      0         0      
       strchr.c.obj                 22      0         0      
       strcpy.c.obj                 20      0         0      
       strlen.c.obj                 20      0         0      
       wcslen.c.obj                 18      0         0      
       copy_decompress_none.c.obj   14      0         0      
       errno.c.obj                  8       0         4      
       s_copysign.c.obj             12      0         0      
       _lock.c.obj                  2       0         8      
       pre_init.c.obj               4       0         0      
       div0.asm.obj                 2       0         0      
    +--+----------------------------+-------+---------+---------+
       Total:                       10603   257       944    
                                                             
       Heap:                        0       0         32768  
       Stack:                       0       0         4096   
       Linker Generated:            0       146       0      
    +--+----------------------------+-------+---------+---------+
       Grand Total:                 11331   491       38604  


LINKER GENERATED COPY TABLES

__TI_cinit_table @ 2000f200 records: 2, size/record: 8, table size: 16
	.data: load addr=2000f178, load size=0000006e bytes, run addr=2000ec94, run size=000001e8 bytes, compression=lzss
	.bss: load addr=2000f1f8, load size=00000008 bytes, run addr=2000ee80, run size=000001d8 bytes, compression=zero_init


LINKER GENERATED HANDLER TABLE

__TI_handler_table @ 2000f1e8 records: 3, size/record: 4, table size: 12
	index: 0, handler: __TI_decompress_lzss
	index: 1, handler: __TI_decompress_none
	index: 2, handler: __TI_zero_init


GLOBAL SYMBOLS: SORTED ALPHABETICALLY BY Name 

address   name                           
-------   ----                           
2000ec91  C$$EXIT                        
2000e8d3  C$$IO$$                        
2000ebf9  CPUcpsid                       
2000f040  ClockP_ctrl                    
2000e711  ClockP_doTick                  
2000e711  ClockP_sysTickHandler          
2000e755  HOSTclose                      
2000e0bd  HOSTlseek                      
2000e325  HOSTopen                       
2000e43d  HOSTread                       
2000e125  HOSTrename                     
2000e799  HOSTunlink                     
2000e495  HOSTwrite                      
2000db6d  IntEnable                      
2000ec75  IntMasterDisable               
2000ec0d  IntVTableBaseSet               
2000ee80  __CIOBUF_                      
20004000  __STACK_END                    
00001000  __STACK_SIZE                   
00008000  __SYSMEM_SIZE                  
2000f200  __TI_CINIT_Base                
2000f210  __TI_CINIT_Limit               
2000f1e8  __TI_Handler_Table_Base        
2000f1f4  __TI_Handler_Table_Limit       
2000e7dd  __TI_auto_init_nobinit_nopinit 
2000e94d  __TI_cleanup                   
2000ee5c  __TI_cleanup_ptr               
2000dfd9  __TI_closefile                 
2000e18d  __TI_decompress_lzss           
2000ec5b  __TI_decompress_none           
2000e5e9  __TI_doflush                   
2000ee60  __TI_dtors_ptr                 
2000ee64  __TI_enable_exit_profile_output
2000ee4c  __TI_ft_end                    
ffffffff  __TI_pprof_out_hndl            
2000c041  __TI_printfi                   
ffffffff  __TI_prof_data_size            
ffffffff  __TI_prof_data_start           
2000e981  __TI_readmsg                   
2000f178  __TI_static_base__             
2000efa0  __TI_tmpnams                   
2000e8a5  __TI_writemsg                  
2000e2c1  __TI_wrt_ok                    
2000eb5d  __TI_zero_init_nomemset        
2000ddd5  __aeabi_cdcmpeq                
2000ddd5  __aeabi_cdcmple                
2000de5b  __aeabi_cdrcmple               
2000e6c9  __aeabi_d2iz                   
2000cecf  __aeabi_dadd                   
2000d1b9  __aeabi_ddiv                   
2000d635  __aeabi_dmul                   
2000cec5  __aeabi_dsub                   
2000ec81  __aeabi_errno_addr             
2000e9e5  __aeabi_i2d                    
2000dfd7  __aeabi_idiv0                  
2000dfd7  __aeabi_ldiv0                  
2000df5d  __aeabi_memclr                 
2000df5d  __aeabi_memclr4                
2000df5d  __aeabi_memclr8                
2000dc15  __aeabi_memcpy                 
2000dc15  __aeabi_memcpy4                
2000dc15  __aeabi_memcpy8                
2000df5f  __aeabi_memset                 
2000df5f  __aeabi_memset4                
2000df5f  __aeabi_memset8                
2000ee58  __aeabi_stderr                 
2000ee50  __aeabi_stdin                  
2000ee54  __aeabi_stdout                 
2000dcb1  __aeabi_uldivmod               
ffffffff  __binit__                      
ffffffff  __c_args__                     
UNDEFED   __mpu_init                     
20003000  __stack                        
2000eb19  _c_int00_noargs                
2000f058  _ctypes_                       
2000ed84  _device                        
2000ec94  _ftable                        
2000ee68  _lock                          
2000ca8f  _nop                           
2000edfc  _stream                        
20004040  _sys_memory                    
UNDEFED   _system_post_cinit             
2000eaed  _system_pre_init               
2000ee6c  _unlock                        
2000ec91  abort                          
2000d731  aligned_alloc                  
2000e635  atoi                           
ffffffff  binit                          
2000e385  close                          
2000ec69  copysign                       
2000ec69  copysignl                      
2000ee78  errno                          
2000e681  exit                           
2000e9b5  finddevice                     
2000dd49  fputc                          
2000d411  fputs                          
2000d825  free                           
2000e3e1  frexp                          
2000e3e1  frexpl                         
2000e25d  fseek                          
2000e821  getdevice                      
2000e8dd  initVectors                    
2000d9e9  ldexp                          
2000d9e9  ldexpl                         
2000ea9d  lseek                          
2000e543  ltoa                           
2000d529  main                           
2000ec89  malloc                         
2000d731  memalign                       
2000eb95  memccpy                        
2000eb3d  memchr                         
2000dc15  memcpy                         
2000df65  memset                         
2000f050  parmbuf                        
2000e1f5  printf                         
2000dd49  putc                           
2000ea49  remove                         
2000ebb1  resetISR                       
2000ebc4  resetVectorAddr                
20004000  resetVectors                   
2000d9e9  scalbn                         
2000d9e9  scalbnl                        
2000d90d  setvbuf                        
2000ebe3  strchr                         
2000ebcb  strcmp                         
2000ec21  strcpy                         
2000ec35  strlen                         
2000ea19  strlen_met_index               
2000eaf1  strlen_met_pointer             
2000e915  strncpy                        
2000ea49  unlink                         
2000ec49  wcslen                         
2000eac5  write                          


GLOBAL SYMBOLS: SORTED BY Symbol Address 

address   name                           
-------   ----                           
00001000  __STACK_SIZE                   
00008000  __SYSMEM_SIZE                  
20003000  __stack                        
20004000  __STACK_END                    
20004000  resetVectors                   
20004040  _sys_memory                    
2000c041  __TI_printfi                   
2000ca8f  _nop                           
2000cec5  __aeabi_dsub                   
2000cecf  __aeabi_dadd                   
2000d1b9  __aeabi_ddiv                   
2000d411  fputs                          
2000d529  main                           
2000d635  __aeabi_dmul                   
2000d731  aligned_alloc                  
2000d731  memalign                       
2000d825  free                           
2000d90d  setvbuf                        
2000d9e9  ldexp                          
2000d9e9  ldexpl                         
2000d9e9  scalbn                         
2000d9e9  scalbnl                        
2000db6d  IntEnable                      
2000dc15  __aeabi_memcpy                 
2000dc15  __aeabi_memcpy4                
2000dc15  __aeabi_memcpy8                
2000dc15  memcpy                         
2000dcb1  __aeabi_uldivmod               
2000dd49  fputc                          
2000dd49  putc                           
2000ddd5  __aeabi_cdcmpeq                
2000ddd5  __aeabi_cdcmple                
2000de5b  __aeabi_cdrcmple               
2000df5d  __aeabi_memclr                 
2000df5d  __aeabi_memclr4                
2000df5d  __aeabi_memclr8                
2000df5f  __aeabi_memset                 
2000df5f  __aeabi_memset4                
2000df5f  __aeabi_memset8                
2000df65  memset                         
2000dfd7  __aeabi_idiv0                  
2000dfd7  __aeabi_ldiv0                  
2000dfd9  __TI_closefile                 
2000e0bd  HOSTlseek                      
2000e125  HOSTrename                     
2000e18d  __TI_decompress_lzss           
2000e1f5  printf                         
2000e25d  fseek                          
2000e2c1  __TI_wrt_ok                    
2000e325  HOSTopen                       
2000e385  close                          
2000e3e1  frexp                          
2000e3e1  frexpl                         
2000e43d  HOSTread                       
2000e495  HOSTwrite                      
2000e543  ltoa                           
2000e5e9  __TI_doflush                   
2000e635  atoi                           
2000e681  exit                           
2000e6c9  __aeabi_d2iz                   
2000e711  ClockP_doTick                  
2000e711  ClockP_sysTickHandler          
2000e755  HOSTclose                      
2000e799  HOSTunlink                     
2000e7dd  __TI_auto_init_nobinit_nopinit 
2000e821  getdevice                      
2000e8a5  __TI_writemsg                  
2000e8d3  C$$IO$$                        
2000e8dd  initVectors                    
2000e915  strncpy                        
2000e94d  __TI_cleanup                   
2000e981  __TI_readmsg                   
2000e9b5  finddevice                     
2000e9e5  __aeabi_i2d                    
2000ea19  strlen_met_index               
2000ea49  remove                         
2000ea49  unlink                         
2000ea9d  lseek                          
2000eac5  write                          
2000eaed  _system_pre_init               
2000eaf1  strlen_met_pointer             
2000eb19  _c_int00_noargs                
2000eb3d  memchr                         
2000eb5d  __TI_zero_init_nomemset        
2000eb95  memccpy                        
2000ebb1  resetISR                       
2000ebc4  resetVectorAddr                
2000ebcb  strcmp                         
2000ebe3  strchr                         
2000ebf9  CPUcpsid                       
2000ec0d  IntVTableBaseSet               
2000ec21  strcpy                         
2000ec35  strlen                         
2000ec49  wcslen                         
2000ec5b  __TI_decompress_none           
2000ec69  copysign                       
2000ec69  copysignl                      
2000ec75  IntMasterDisable               
2000ec81  __aeabi_errno_addr             
2000ec89  malloc                         
2000ec91  C$$EXIT                        
2000ec91  abort                          
2000ec94  _ftable                        
2000ed84  _device                        
2000edfc  _stream                        
2000ee4c  __TI_ft_end                    
2000ee50  __aeabi_stdin                  
2000ee54  __aeabi_stdout                 
2000ee58  __aeabi_stderr                 
2000ee5c  __TI_cleanup_ptr               
2000ee60  __TI_dtors_ptr                 
2000ee64  __TI_enable_exit_profile_output
2000ee68  _lock                          
2000ee6c  _unlock                        
2000ee78  errno                          
2000ee80  __CIOBUF_                      
2000efa0  __TI_tmpnams                   
2000f040  ClockP_ctrl                    
2000f050  parmbuf                        
2000f058  _ctypes_                       
2000f178  __TI_static_base__             
2000f1e8  __TI_Handler_Table_Base        
2000f1f4  __TI_Handler_Table_Limit       
2000f200  __TI_CINIT_Base                
2000f210  __TI_CINIT_Limit               
ffffffff  __TI_pprof_out_hndl            
ffffffff  __TI_prof_data_size            
ffffffff  __TI_prof_data_start           
ffffffff  __binit__                      
ffffffff  __c_args__                     
ffffffff  binit                          
UNDEFED   __mpu_init                     
UNDEFED   _system_post_cinit             

[133 symbols]
